{
  "contractName": "NFTImage",
  "abi": [
    {
      "constant": false,
      "inputs": [
        {
          "internalType": "string",
          "name": "_imgName",
          "type": "string"
        },
        {
          "internalType": "uint256",
          "name": "_imgPrice",
          "type": "uint256"
        },
        {
          "internalType": "string",
          "name": "_imgDescription",
          "type": "string"
        },
        {
          "internalType": "string",
          "name": "_imgHash",
          "type": "string"
        }
      ],
      "name": "uploadImg",
      "outputs": [],
      "payable": false,
      "stateMutability": "nonpayable",
      "type": "function"
    },
    {
      "constant": true,
      "inputs": [
        {
          "internalType": "uint256",
          "name": "_index",
          "type": "uint256"
        }
      ],
      "name": "getImage",
      "outputs": [
        {
          "internalType": "string",
          "name": "",
          "type": "string"
        },
        {
          "internalType": "uint256",
          "name": "",
          "type": "uint256"
        },
        {
          "internalType": "string",
          "name": "",
          "type": "string"
        },
        {
          "internalType": "string",
          "name": "",
          "type": "string"
        }
      ],
      "payable": false,
      "stateMutability": "view",
      "type": "function"
    },
    {
      "constant": true,
      "inputs": [],
      "name": "getCount",
      "outputs": [
        {
          "internalType": "uint256",
          "name": "",
          "type": "uint256"
        }
      ],
      "payable": false,
      "stateMutability": "view",
      "type": "function"
    }
  ],
  "bytecode": "0x608060405234801561001057600080fd5b506108ac806100206000396000f3fe608060405234801561001057600080fd5b50600436106100415760003560e01c8063114edb80146100465780632607aafa14610239578063a87d942c146103bf575b600080fd5b6102376004803603608081101561005c57600080fd5b810190808035906020019064010000000081111561007957600080fd5b82018360208201111561008b57600080fd5b803590602001918460018302840111640100000000831117156100ad57600080fd5b91908080601f016020809104026020016040519081016040528093929190818152602001838380828437600081840152601f19601f820116905080830192505050505050509192919290803590602001909291908035906020019064010000000081111561011a57600080fd5b82018360208201111561012c57600080fd5b8035906020019184600183028401116401000000008311171561014e57600080fd5b91908080601f016020809104026020016040519081016040528093929190818152602001838380828437600081840152601f19601f820116905080830192505050505050509192919290803590602001906401000000008111156101b157600080fd5b8201836020820111156101c357600080fd5b803590602001918460018302840111640100000000831117156101e557600080fd5b91908080601f016020809104026020016040519081016040528093929190818152602001838380828437600081840152601f19601f8201169050808301925050505050505091929192905050506103dd565b005b6102656004803603602081101561024f57600080fd5b81019080803590602001909291905050506104d1565b60405180806020018581526020018060200180602001848103845288818151815260200191508051906020019080838360005b838110156102b3578082015181840152602081019050610298565b50505050905090810190601f1680156102e05780820380516001836020036101000a031916815260200191505b50848103835286818151815260200191508051906020019080838360005b838110156103195780820151818401526020810190506102fe565b50505050905090810190601f1680156103465780820380516001836020036101000a031916815260200191505b50848103825285818151815260200191508051906020019080838360005b8381101561037f578082015181840152602081019050610364565b50505050905090810190601f1680156103ac5780820380516001836020036101000a031916815260200191505b5097505050505050505060405180910390f35b6103c7610761565b6040518082815260200191505060405180910390f35b6000803373ffffffffffffffffffffffffffffffffffffffff1673ffffffffffffffffffffffffffffffffffffffff1681526020019081526020016000206040518060800160405280868152602001858152602001848152602001838152509080600181540180825580915050906001820390600052602060002090600402016000909192909190915060008201518160000190805190602001906104839291906107aa565b506020820151816001015560408201518160020190805190602001906104aa9291906107aa565b5060608201518160030190805190602001906104c79291906107aa565b5050505050505050565b606060006060806104e061082a565b6000803373ffffffffffffffffffffffffffffffffffffffff1673ffffffffffffffffffffffffffffffffffffffff168152602001908152602001600020868154811061052957fe5b9060005260206000209060040201604051806080016040529081600082018054600181600116156101000203166002900480601f0160208091040260200160405190810160405280929190818152602001828054600181600116156101000203166002900480156105db5780601f106105b0576101008083540402835291602001916105db565b820191906000526020600020905b8154815290600101906020018083116105be57829003601f168201915b5050505050815260200160018201548152602001600282018054600181600116156101000203166002900480601f0160208091040260200160405190810160405280929190818152602001828054600181600116156101000203166002900480156106875780601f1061065c57610100808354040283529160200191610687565b820191906000526020600020905b81548152906001019060200180831161066a57829003601f168201915b50505050508152602001600382018054600181600116156101000203166002900480601f0160208091040260200160405190810160405280929190818152602001828054600181600116156101000203166002900480156107295780601f106106fe57610100808354040283529160200191610729565b820191906000526020600020905b81548152906001019060200180831161070c57829003601f168201915b505050505081525050905080600001518160200151826040015183606001518393508191508090509450945094509450509193509193565b60008060003373ffffffffffffffffffffffffffffffffffffffff1673ffffffffffffffffffffffffffffffffffffffff16815260200190815260200160002080549050905090565b828054600181600116156101000203166002900490600052602060002090601f016020900481019282601f106107eb57805160ff1916838001178555610819565b82800160010185558215610819579182015b828111156108185782518255916020019190600101906107fd565b5b5090506108269190610852565b5090565b6040518060800160405280606081526020016000815260200160608152602001606081525090565b61087491905b80821115610870576000816000905550600101610858565b5090565b9056fea265627a7a72315820a378ae1f1ea8a224f3a3a98ef499d07e3144c0fbb70b1b5817470cb899ed035464736f6c63430005100032",
  "source": "pragma solidity >=0.5.0 <0.7.0;\r\n//import \"@openzeppelin/contracts/token/ERC721/ERC721.sol\";\r\n\r\ncontract NFTImage { //is ERC721{\r\n\r\n    struct ImgFile{\r\n        string imgName;\r\n        uint imgPrice;\r\n        string imgDescription;\r\n        string imgHash;\r\n    }\r\n\r\n    //uint public tokenCounter;\r\n    \r\n    mapping(address => ImgFile[]) files;\r\n\r\n    // constructor() public ERC721(\"Django\",\"DJG\"){\r\n    //     tokenCounter = 0;\r\n    // }\r\n\r\n    function uploadImg(string memory _imgName, uint _imgPrice, string memory _imgDescription, string memory _imgHash) public{\r\n        files[msg.sender].push(ImgFile({imgName: _imgName, imgPrice: _imgPrice, imgDescription:  _imgDescription, imgHash:  _imgHash}));\r\n    }\r\n\r\n    function getImage(uint _index) public view returns(string memory, uint, string memory, string memory){\r\n        ImgFile memory file = files[msg.sender][_index];\r\n        return (file.imgName, file.imgPrice, file.imgDescription, file.imgHash);\r\n    }\r\n\r\n    function getCount()public view returns(uint){\r\n        return files[msg.sender].length;\r\n    }\r\n\r\n}",
  "sourcePath": "E:/NFTImageApp/contracts/NFTImage.sol",
  "compiler": {
    "name": "solc",
    "version": "0.5.16+commit.9c3226ce.Emscripten.clang"
  },
  "schemaVersion": "3.4.1",
  "updatedAt": "2021-07-12T07:01:24.748Z",
  "networkType": "ethereum",
  "devdoc": {
    "methods": {}
  },
  "userdoc": {
    "methods": {}
  }
}